{
  "_format": "hh-sol-artifact-1",
  "contractName": "CyberRunner",
  "sourceName": "contracts/CyberRunner.sol",
  "abi": [
    {
      "inputs": [],
      "stateMutability": "nonpayable",
      "type": "constructor"
    },
    {
      "inputs": [],
      "name": "getHighScore",
      "outputs": [
        {
          "internalType": "uint256[]",
          "name": "",
          "type": "uint256[]"
        }
      ],
      "stateMutability": "view",
      "type": "function"
    },
    {
      "inputs": [],
      "name": "getPlayerScore",
      "outputs": [
        {
          "internalType": "uint256",
          "name": "",
          "type": "uint256"
        }
      ],
      "stateMutability": "view",
      "type": "function"
    },
    {
      "inputs": [],
      "name": "getPlayers",
      "outputs": [
        {
          "internalType": "address[]",
          "name": "",
          "type": "address[]"
        }
      ],
      "stateMutability": "view",
      "type": "function"
    },
    {
      "inputs": [
        {
          "internalType": "uint256",
          "name": "",
          "type": "uint256"
        }
      ],
      "name": "players",
      "outputs": [
        {
          "internalType": "address",
          "name": "",
          "type": "address"
        }
      ],
      "stateMutability": "view",
      "type": "function"
    },
    {
      "inputs": [],
      "name": "signerAddress",
      "outputs": [
        {
          "internalType": "address",
          "name": "",
          "type": "address"
        }
      ],
      "stateMutability": "view",
      "type": "function"
    },
    {
      "inputs": [
        {
          "internalType": "uint256",
          "name": "highScore",
          "type": "uint256"
        }
      ],
      "name": "storeHighScore",
      "outputs": [],
      "stateMutability": "nonpayable",
      "type": "function"
    }
  ],
  "bytecode": "0x6080604052348015600f57600080fd5b506108d38061001f6000396000f3fe608060405234801561001057600080fd5b50600436106100625760003560e01c80633824ea31146100675780635b7633d0146100855780638b5b9ccc146100a3578063dc21d020146100c1578063f2323bfc146100df578063f71d96cb146100fb575b600080fd5b61006f61012b565b60405161007c91906105b6565b60405180910390f35b61008d610241565b60405161009a9190610619565b60405180910390f35b6100ab610267565b6040516100b891906106f2565b60405180910390f35b6100c96102f5565b6040516100d69190610723565b60405180910390f35b6100f960048036038101906100f4919061076f565b61033c565b005b6101156004803603810190610110919061076f565b6104af565b6040516101229190610619565b60405180910390f35b6060600060038054905067ffffffffffffffff81111561014e5761014d61079c565b5b60405190808252806020026020018201604052801561017c5781602001602082028036833780820191505090505b50905060005b6003805490508110156102395760026000600383815481106101a7576101a66107cb565b5b9060005260206000200160009054906101000a900473ffffffffffffffffffffffffffffffffffffffff1673ffffffffffffffffffffffffffffffffffffffff1673ffffffffffffffffffffffffffffffffffffffff168152602001908152602001600020548282815181106102205761021f6107cb565b5b6020026020010181815250508080600101915050610182565b508091505090565b600160009054906101000a900473ffffffffffffffffffffffffffffffffffffffff1681565b606060038054806020026020016040519081016040528092919081815260200182805480156102eb57602002820191906000526020600020905b8160009054906101000a900473ffffffffffffffffffffffffffffffffffffffff1673ffffffffffffffffffffffffffffffffffffffff16815260200190600101908083116102a1575b5050505050905090565b6000600260003373ffffffffffffffffffffffffffffffffffffffff1673ffffffffffffffffffffffffffffffffffffffff16815260200190815260200160002054905090565b6000600260003373ffffffffffffffffffffffffffffffffffffffff1673ffffffffffffffffffffffffffffffffffffffff16815260200190815260200160002054036103e7576003339080600181540180825580915050600190039060005260206000200160009091909190916101000a81548173ffffffffffffffffffffffffffffffffffffffff021916908373ffffffffffffffffffffffffffffffffffffffff1602179055505b600260003373ffffffffffffffffffffffffffffffffffffffff1673ffffffffffffffffffffffffffffffffffffffff168152602001908152602001600020548111610468576040517f08c379a000000000000000000000000000000000000000000000000000000000815260040161045f9061087d565b60405180910390fd5b80600260003373ffffffffffffffffffffffffffffffffffffffff1673ffffffffffffffffffffffffffffffffffffffff1681526020019081526020016000208190555050565b600381815481106104bf57600080fd5b906000526020600020016000915054906101000a900473ffffffffffffffffffffffffffffffffffffffff1681565b600081519050919050565b600082825260208201905092915050565b6000819050602082019050919050565b6000819050919050565b61052d8161051a565b82525050565b600061053f8383610524565b60208301905092915050565b6000602082019050919050565b6000610563826104ee565b61056d81856104f9565b93506105788361050a565b8060005b838110156105a95781516105908882610533565b975061059b8361054b565b92505060018101905061057c565b5085935050505092915050565b600060208201905081810360008301526105d08184610558565b905092915050565b600073ffffffffffffffffffffffffffffffffffffffff82169050919050565b6000610603826105d8565b9050919050565b610613816105f8565b82525050565b600060208201905061062e600083018461060a565b92915050565b600081519050919050565b600082825260208201905092915050565b6000819050602082019050919050565b610669816105f8565b82525050565b600061067b8383610660565b60208301905092915050565b6000602082019050919050565b600061069f82610634565b6106a9818561063f565b93506106b483610650565b8060005b838110156106e55781516106cc888261066f565b97506106d783610687565b9250506001810190506106b8565b5085935050505092915050565b6000602082019050818103600083015261070c8184610694565b905092915050565b61071d8161051a565b82525050565b60006020820190506107386000830184610714565b92915050565b600080fd5b61074c8161051a565b811461075757600080fd5b50565b60008135905061076981610743565b92915050565b6000602082840312156107855761078461073e565b5b60006107938482850161075a565b91505092915050565b7f4e487b7100000000000000000000000000000000000000000000000000000000600052604160045260246000fd5b7f4e487b7100000000000000000000000000000000000000000000000000000000600052603260045260246000fd5b600082825260208201905092915050565b7f796f75206d757374206265617420796f7572206c617374206869676853636f7260008201527f6500000000000000000000000000000000000000000000000000000000000000602082015250565b60006108676021836107fa565b91506108728261080b565b604082019050919050565b600060208201905081810360008301526108968161085a565b905091905056fea26469706673582212206fd9ad6e54ac4e83b3f54aa7020ae785edcc8841d78bc52cf2a82377ba10c85f64736f6c634300081c0033",
  "linkReferences": {},
  "deployedLinkReferences": {}
}