{
  "_format": "hh-sol-artifact-1",
  "contractName": "CyberNft",
  "sourceName": "contracts/CyberNft.sol",
  "abi": [
    {
      "inputs": [],
      "stateMutability": "nonpayable",
      "type": "constructor"
    },
    {
      "inputs": [
        {
          "internalType": "address",
          "name": "sender",
          "type": "address"
        },
        {
          "internalType": "uint256",
          "name": "tokenId",
          "type": "uint256"
        },
        {
          "internalType": "address",
          "name": "owner",
          "type": "address"
        }
      ],
      "name": "ERC721IncorrectOwner",
      "type": "error"
    },
    {
      "inputs": [
        {
          "internalType": "address",
          "name": "operator",
          "type": "address"
        },
        {
          "internalType": "uint256",
          "name": "tokenId",
          "type": "uint256"
        }
      ],
      "name": "ERC721InsufficientApproval",
      "type": "error"
    },
    {
      "inputs": [
        {
          "internalType": "address",
          "name": "approver",
          "type": "address"
        }
      ],
      "name": "ERC721InvalidApprover",
      "type": "error"
    },
    {
      "inputs": [
        {
          "internalType": "address",
          "name": "operator",
          "type": "address"
        }
      ],
      "name": "ERC721InvalidOperator",
      "type": "error"
    },
    {
      "inputs": [
        {
          "internalType": "address",
          "name": "owner",
          "type": "address"
        }
      ],
      "name": "ERC721InvalidOwner",
      "type": "error"
    },
    {
      "inputs": [
        {
          "internalType": "address",
          "name": "receiver",
          "type": "address"
        }
      ],
      "name": "ERC721InvalidReceiver",
      "type": "error"
    },
    {
      "inputs": [
        {
          "internalType": "address",
          "name": "sender",
          "type": "address"
        }
      ],
      "name": "ERC721InvalidSender",
      "type": "error"
    },
    {
      "inputs": [
        {
          "internalType": "uint256",
          "name": "tokenId",
          "type": "uint256"
        }
      ],
      "name": "ERC721NonexistentToken",
      "type": "error"
    },
    {
      "anonymous": false,
      "inputs": [
        {
          "indexed": true,
          "internalType": "address",
          "name": "owner",
          "type": "address"
        },
        {
          "indexed": true,
          "internalType": "address",
          "name": "approved",
          "type": "address"
        },
        {
          "indexed": true,
          "internalType": "uint256",
          "name": "tokenId",
          "type": "uint256"
        }
      ],
      "name": "Approval",
      "type": "event"
    },
    {
      "anonymous": false,
      "inputs": [
        {
          "indexed": true,
          "internalType": "address",
          "name": "owner",
          "type": "address"
        },
        {
          "indexed": true,
          "internalType": "address",
          "name": "operator",
          "type": "address"
        },
        {
          "indexed": false,
          "internalType": "bool",
          "name": "approved",
          "type": "bool"
        }
      ],
      "name": "ApprovalForAll",
      "type": "event"
    },
    {
      "anonymous": false,
      "inputs": [
        {
          "indexed": false,
          "internalType": "uint256",
          "name": "_fromTokenId",
          "type": "uint256"
        },
        {
          "indexed": false,
          "internalType": "uint256",
          "name": "_toTokenId",
          "type": "uint256"
        }
      ],
      "name": "BatchMetadataUpdate",
      "type": "event"
    },
    {
      "anonymous": false,
      "inputs": [
        {
          "indexed": false,
          "internalType": "uint256",
          "name": "_tokenId",
          "type": "uint256"
        }
      ],
      "name": "MetadataUpdate",
      "type": "event"
    },
    {
      "anonymous": false,
      "inputs": [
        {
          "indexed": true,
          "internalType": "address",
          "name": "from",
          "type": "address"
        },
        {
          "indexed": true,
          "internalType": "address",
          "name": "to",
          "type": "address"
        },
        {
          "indexed": true,
          "internalType": "uint256",
          "name": "tokenId",
          "type": "uint256"
        }
      ],
      "name": "Transfer",
      "type": "event"
    },
    {
      "inputs": [
        {
          "internalType": "uint256",
          "name": "id",
          "type": "uint256"
        },
        {
          "internalType": "string",
          "name": "character",
          "type": "string"
        }
      ],
      "name": "addCharacter",
      "outputs": [],
      "stateMutability": "nonpayable",
      "type": "function"
    },
    {
      "inputs": [
        {
          "internalType": "address",
          "name": "to",
          "type": "address"
        },
        {
          "internalType": "uint256",
          "name": "tokenId",
          "type": "uint256"
        }
      ],
      "name": "approve",
      "outputs": [],
      "stateMutability": "nonpayable",
      "type": "function"
    },
    {
      "inputs": [
        {
          "internalType": "address",
          "name": "owner",
          "type": "address"
        }
      ],
      "name": "balanceOf",
      "outputs": [
        {
          "internalType": "uint256",
          "name": "",
          "type": "uint256"
        }
      ],
      "stateMutability": "view",
      "type": "function"
    },
    {
      "inputs": [
        {
          "internalType": "uint256",
          "name": "tokenId",
          "type": "uint256"
        }
      ],
      "name": "getApproved",
      "outputs": [
        {
          "internalType": "address",
          "name": "",
          "type": "address"
        }
      ],
      "stateMutability": "view",
      "type": "function"
    },
    {
      "inputs": [],
      "name": "getPlayersTokenIDs",
      "outputs": [
        {
          "internalType": "uint256[]",
          "name": "",
          "type": "uint256[]"
        }
      ],
      "stateMutability": "view",
      "type": "function"
    },
    {
      "inputs": [
        {
          "internalType": "address",
          "name": "owner",
          "type": "address"
        },
        {
          "internalType": "address",
          "name": "operator",
          "type": "address"
        }
      ],
      "name": "isApprovedForAll",
      "outputs": [
        {
          "internalType": "bool",
          "name": "",
          "type": "bool"
        }
      ],
      "stateMutability": "view",
      "type": "function"
    },
    {
      "inputs": [
        {
          "internalType": "string",
          "name": "_tokenURI",
          "type": "string"
        },
        {
          "internalType": "uint256",
          "name": "id",
          "type": "uint256"
        }
      ],
      "name": "mint",
      "outputs": [
        {
          "internalType": "uint256",
          "name": "",
          "type": "uint256"
        }
      ],
      "stateMutability": "nonpayable",
      "type": "function"
    },
    {
      "inputs": [],
      "name": "name",
      "outputs": [
        {
          "internalType": "string",
          "name": "",
          "type": "string"
        }
      ],
      "stateMutability": "view",
      "type": "function"
    },
    {
      "inputs": [
        {
          "internalType": "uint256",
          "name": "tokenId",
          "type": "uint256"
        }
      ],
      "name": "ownerOf",
      "outputs": [
        {
          "internalType": "address",
          "name": "",
          "type": "address"
        }
      ],
      "stateMutability": "view",
      "type": "function"
    },
    {
      "inputs": [
        {
          "internalType": "address",
          "name": "from",
          "type": "address"
        },
        {
          "internalType": "address",
          "name": "to",
          "type": "address"
        },
        {
          "internalType": "uint256",
          "name": "tokenId",
          "type": "uint256"
        }
      ],
      "name": "safeTransferFrom",
      "outputs": [],
      "stateMutability": "nonpayable",
      "type": "function"
    },
    {
      "inputs": [
        {
          "internalType": "address",
          "name": "from",
          "type": "address"
        },
        {
          "internalType": "address",
          "name": "to",
          "type": "address"
        },
        {
          "internalType": "uint256",
          "name": "tokenId",
          "type": "uint256"
        },
        {
          "internalType": "bytes",
          "name": "data",
          "type": "bytes"
        }
      ],
      "name": "safeTransferFrom",
      "outputs": [],
      "stateMutability": "nonpayable",
      "type": "function"
    },
    {
      "inputs": [
        {
          "internalType": "address",
          "name": "operator",
          "type": "address"
        },
        {
          "internalType": "bool",
          "name": "approved",
          "type": "bool"
        }
      ],
      "name": "setApprovalForAll",
      "outputs": [],
      "stateMutability": "nonpayable",
      "type": "function"
    },
    {
      "inputs": [
        {
          "internalType": "bytes4",
          "name": "interfaceId",
          "type": "bytes4"
        }
      ],
      "name": "supportsInterface",
      "outputs": [
        {
          "internalType": "bool",
          "name": "",
          "type": "bool"
        }
      ],
      "stateMutability": "view",
      "type": "function"
    },
    {
      "inputs": [],
      "name": "symbol",
      "outputs": [
        {
          "internalType": "string",
          "name": "",
          "type": "string"
        }
      ],
      "stateMutability": "view",
      "type": "function"
    },
    {
      "inputs": [
        {
          "internalType": "uint256",
          "name": "tokenId",
          "type": "uint256"
        }
      ],
      "name": "tokenURI",
      "outputs": [
        {
          "internalType": "string",
          "name": "",
          "type": "string"
        }
      ],
      "stateMutability": "view",
      "type": "function"
    },
    {
      "inputs": [
        {
          "internalType": "address",
          "name": "from",
          "type": "address"
        },
        {
          "internalType": "address",
          "name": "to",
          "type": "address"
        },
        {
          "internalType": "uint256",
          "name": "tokenId",
          "type": "uint256"
        }
      ],
      "name": "transferFrom",
      "outputs": [],
      "stateMutability": "nonpayable",
      "type": "function"
    }
  ],
  "bytecode": "0x6080604052600060075573105673d99a23f597e1ab6e3e79bb131f157fb3b4600a60006101000a81548173ffffffffffffffffffffffffffffffffffffffff021916908373ffffffffffffffffffffffffffffffffffffffff16021790555034801561006a57600080fd5b506040518060400160405280600c81526020017f79656c6c6f775f736869727400000000000000000000000000000000000000008152506040518060400160405280600381526020017f594c53000000000000000000000000000000000000000000000000000000000081525081600090816100e6919061034e565b5080600190816100f6919061034e565b505050610420565b600081519050919050565b7f4e487b7100000000000000000000000000000000000000000000000000000000600052604160045260246000fd5b7f4e487b7100000000000000000000000000000000000000000000000000000000600052602260045260246000fd5b6000600282049050600182168061017f57607f821691505b60208210810361019257610191610138565b5b50919050565b60008190508160005260206000209050919050565b60006020601f8301049050919050565b600082821b905092915050565b6000600883026101fa7fffffffffffffffffffffffffffffffffffffffffffffffffffffffffffffffff826101bd565b61020486836101bd565b95508019841693508086168417925050509392505050565b6000819050919050565b6000819050919050565b600061024b6102466102418461021c565b610226565b61021c565b9050919050565b6000819050919050565b61026583610230565b61027961027182610252565b8484546101ca565b825550505050565b600090565b61028e610281565b61029981848461025c565b505050565b5b818110156102bd576102b2600082610286565b60018101905061029f565b5050565b601f821115610302576102d381610198565b6102dc846101ad565b810160208510156102eb578190505b6102ff6102f7856101ad565b83018261029e565b50505b505050565b600082821c905092915050565b600061032560001984600802610307565b1980831691505092915050565b600061033e8383610314565b9150826002028217905092915050565b610357826100fe565b67ffffffffffffffff8111156103705761036f610109565b5b61037a8254610167565b6103858282856102c1565b600060209050601f8311600181146103b857600084156103a6578287015190505b6103b08582610332565b865550610418565b601f1984166103c686610198565b60005b828110156103ee578489015182556001820191506020850194506020810190506103c9565b8683101561040b5784890151610407601f891682610314565b8355505b6001600288020188555050505b505050505050565b6128de8061042f6000396000f3fe608060405234801561001057600080fd5b50600436106101005760003560e01c806342842e0e11610097578063a22cb46511610066578063a22cb465146102bf578063b88d4fde146102db578063c87b56dd146102f7578063e985e9c51461032757610100565b806342842e0e146102255780636352211e1461024157806370a082311461027157806395d89b41146102a157610100565b8063095ea7b3116100d3578063095ea7b3146101b357806323b872dd146101cf5780633fc897f6146101eb5780633ffdccd41461020757610100565b806301ffc9a714610105578063056b01ce1461013557806306fdde0314610165578063081812fc14610183575b600080fd5b61011f600480360381019061011a9190611b22565b610357565b60405161012c9190611b6a565b60405180910390f35b61014f600480360381019061014a9190611d01565b6103b8565b60405161015c9190611d6c565b60405180910390f35b61016d610564565b60405161017a9190611e06565b60405180910390f35b61019d60048036038101906101989190611e28565b6105f6565b6040516101aa9190611e96565b60405180910390f35b6101cd60048036038101906101c89190611edd565b610612565b005b6101e960048036038101906101e49190611f1d565b610628565b005b61020560048036038101906102009190611f70565b61072a565b005b61020f6107df565b60405161021c919061208a565b60405180910390f35b61023f600480360381019061023a9190611f1d565b610874565b005b61025b60048036038101906102569190611e28565b610894565b6040516102689190611e96565b60405180910390f35b61028b600480360381019061028691906120ac565b6108a6565b6040516102989190611d6c565b60405180910390f35b6102a9610960565b6040516102b69190611e06565b60405180910390f35b6102d960048036038101906102d49190612105565b6109f2565b005b6102f560048036038101906102f091906121e6565b610a08565b005b610311600480360381019061030c9190611e28565b610a2d565b60405161031e9190611e06565b60405180910390f35b610341600480360381019061033c9190612269565b610b40565b60405161034e9190611b6a565b60405180910390f35b6000634906490660e01b7bffffffffffffffffffffffffffffffffffffffffffffffffffffffff1916827bffffffffffffffffffffffffffffffffffffffffffffffffffffffff191614806103b157506103b082610bd4565b5b9050919050565b6000600b60003373ffffffffffffffffffffffffffffffffffffffff1673ffffffffffffffffffffffffffffffffffffffff168152602001908152602001600020600083815260200190815260200160002060009054906101000a900460ff1615610458576040517f08c379a000000000000000000000000000000000000000000000000000000000815260040161044f906122f5565b60405180910390fd5b6007600081548092919061046b90612344565b919050555061047c33600754610cb6565b61048860075484610daf565b600860003373ffffffffffffffffffffffffffffffffffffffff1673ffffffffffffffffffffffffffffffffffffffff16815260200190815260200160002060075490806001815401808255809150506001900390600052602060002001600090919091909150556001600b60003373ffffffffffffffffffffffffffffffffffffffff1673ffffffffffffffffffffffffffffffffffffffff168152602001908152602001600020600084815260200190815260200160002060006101000a81548160ff021916908315150217905550600754905092915050565b606060008054610573906123bb565b80601f016020809104026020016040519081016040528092919081815260200182805461059f906123bb565b80156105ec5780601f106105c1576101008083540402835291602001916105ec565b820191906000526020600020905b8154815290600101906020018083116105cf57829003601f168201915b5050505050905090565b600061060182610e0b565b5061060b82610e93565b9050919050565b610624828261061f610ed0565b610ed8565b5050565b600073ffffffffffffffffffffffffffffffffffffffff168273ffffffffffffffffffffffffffffffffffffffff160361069a5760006040517f64a0ae920000000000000000000000000000000000000000000000000000000081526004016106919190611e96565b60405180910390fd5b60006106ae83836106a9610ed0565b610eea565b90508373ffffffffffffffffffffffffffffffffffffffff168173ffffffffffffffffffffffffffffffffffffffff1614610724578382826040517f64283d7b00000000000000000000000000000000000000000000000000000000815260040161071b939291906123ec565b60405180910390fd5b50505050565b600a60009054906101000a900473ffffffffffffffffffffffffffffffffffffffff1673ffffffffffffffffffffffffffffffffffffffff163373ffffffffffffffffffffffffffffffffffffffff16146107ba576040517f08c379a00000000000000000000000000000000000000000000000000000000081526004016107b19061246f565b60405180910390fd5b806009600084815260200190815260200160002090816107da919061263b565b505050565b6060600860003373ffffffffffffffffffffffffffffffffffffffff1673ffffffffffffffffffffffffffffffffffffffff16815260200190815260200160002080548060200260200160405190810160405280929190818152602001828054801561086a57602002820191906000526020600020905b815481526020019060010190808311610856575b5050505050905090565b61088f83838360405180602001604052806000815250610a08565b505050565b600061089f82610e0b565b9050919050565b60008073ffffffffffffffffffffffffffffffffffffffff168273ffffffffffffffffffffffffffffffffffffffff16036109195760006040517f89c62b640000000000000000000000000000000000000000000000000000000081526004016109109190611e96565b60405180910390fd5b600360008373ffffffffffffffffffffffffffffffffffffffff1673ffffffffffffffffffffffffffffffffffffffff168152602001908152602001600020549050919050565b60606001805461096f906123bb565b80601f016020809104026020016040519081016040528092919081815260200182805461099b906123bb565b80156109e85780601f106109bd576101008083540402835291602001916109e8565b820191906000526020600020905b8154815290600101906020018083116109cb57829003601f168201915b5050505050905090565b610a046109fd610ed0565b8383611104565b5050565b610a13848484610628565b610a27610a1e610ed0565b85858585611273565b50505050565b6060610a3882610e0b565b506000600660008481526020019081526020016000208054610a59906123bb565b80601f0160208091040260200160405190810160405280929190818152602001828054610a85906123bb565b8015610ad25780601f10610aa757610100808354040283529160200191610ad2565b820191906000526020600020905b815481529060010190602001808311610ab557829003601f168201915b505050505090506000610ae3611424565b90506000815103610af8578192505050610b3b565b600082511115610b2d578082604051602001610b15929190612749565b60405160208183030381529060405292505050610b3b565b610b368461143b565b925050505b919050565b6000600560008473ffffffffffffffffffffffffffffffffffffffff1673ffffffffffffffffffffffffffffffffffffffff16815260200190815260200160002060008373ffffffffffffffffffffffffffffffffffffffff1673ffffffffffffffffffffffffffffffffffffffff16815260200190815260200160002060009054906101000a900460ff16905092915050565b60007f80ac58cd000000000000000000000000000000000000000000000000000000007bffffffffffffffffffffffffffffffffffffffffffffffffffffffff1916827bffffffffffffffffffffffffffffffffffffffffffffffffffffffff19161480610c9f57507f5b5e139f000000000000000000000000000000000000000000000000000000007bffffffffffffffffffffffffffffffffffffffffffffffffffffffff1916827bffffffffffffffffffffffffffffffffffffffffffffffffffffffff1916145b80610caf5750610cae826114a4565b5b9050919050565b600073ffffffffffffffffffffffffffffffffffffffff168273ffffffffffffffffffffffffffffffffffffffff1603610d285760006040517f64a0ae92000000000000000000000000000000000000000000000000000000008152600401610d1f9190611e96565b60405180910390fd5b6000610d3683836000610eea565b9050600073ffffffffffffffffffffffffffffffffffffffff168173ffffffffffffffffffffffffffffffffffffffff1614610daa5760006040517f73c6ac6e000000000000000000000000000000000000000000000000000000008152600401610da19190611e96565b60405180910390fd5b505050565b80600660008481526020019081526020016000209081610dcf919061263b565b507ff8e1a15aba9398e019f0b49df1a4fde98ee17ae345cb5f6b5e2c27f5033e8ce782604051610dff9190611d6c565b60405180910390a15050565b600080610e178361150e565b9050600073ffffffffffffffffffffffffffffffffffffffff168173ffffffffffffffffffffffffffffffffffffffff1603610e8a57826040517f7e273289000000000000000000000000000000000000000000000000000000008152600401610e819190611d6c565b60405180910390fd5b80915050919050565b60006004600083815260200190815260200160002060009054906101000a900473ffffffffffffffffffffffffffffffffffffffff169050919050565b600033905090565b610ee5838383600161154b565b505050565b600080610ef68461150e565b9050600073ffffffffffffffffffffffffffffffffffffffff168373ffffffffffffffffffffffffffffffffffffffff1614610f3857610f37818486611710565b5b600073ffffffffffffffffffffffffffffffffffffffff168173ffffffffffffffffffffffffffffffffffffffff1614610fc957610f7a60008560008061154b565b6001600360008373ffffffffffffffffffffffffffffffffffffffff1673ffffffffffffffffffffffffffffffffffffffff168152602001908152602001600020600082825403925050819055505b600073ffffffffffffffffffffffffffffffffffffffff168573ffffffffffffffffffffffffffffffffffffffff161461104c576001600360008773ffffffffffffffffffffffffffffffffffffffff1673ffffffffffffffffffffffffffffffffffffffff168152602001908152602001600020600082825401925050819055505b846002600086815260200190815260200160002060006101000a81548173ffffffffffffffffffffffffffffffffffffffff021916908373ffffffffffffffffffffffffffffffffffffffff160217905550838573ffffffffffffffffffffffffffffffffffffffff168273ffffffffffffffffffffffffffffffffffffffff167fddf252ad1be2c89b69c2b068fc378daa952ba7f163c4a11628f55a4df523b3ef60405160405180910390a4809150509392505050565b600073ffffffffffffffffffffffffffffffffffffffff168273ffffffffffffffffffffffffffffffffffffffff160361117557816040517f5b08ba1800000000000000000000000000000000000000000000000000000000815260040161116c9190611e96565b60405180910390fd5b80600560008573ffffffffffffffffffffffffffffffffffffffff1673ffffffffffffffffffffffffffffffffffffffff16815260200190815260200160002060008473ffffffffffffffffffffffffffffffffffffffff1673ffffffffffffffffffffffffffffffffffffffff16815260200190815260200160002060006101000a81548160ff0219169083151502179055508173ffffffffffffffffffffffffffffffffffffffff168373ffffffffffffffffffffffffffffffffffffffff167f17307eab39ab6107e8899845ad3d59bd9653f200f220920489ca2b5937696c31836040516112669190611b6a565b60405180910390a3505050565b60008373ffffffffffffffffffffffffffffffffffffffff163b111561141d578273ffffffffffffffffffffffffffffffffffffffff1663150b7a02868685856040518563ffffffff1660e01b81526004016112d294939291906127c2565b6020604051808303816000875af192505050801561130e57506040513d601f19601f8201168201806040525081019061130b9190612823565b60015b611392573d806000811461133e576040519150601f19603f3d011682016040523d82523d6000602084013e611343565b606091505b50600081510361138a57836040517f64a0ae920000000000000000000000000000000000000000000000000000000081526004016113819190611e96565b60405180910390fd5b805181602001fd5b63150b7a0260e01b7bffffffffffffffffffffffffffffffffffffffffffffffffffffffff1916817bffffffffffffffffffffffffffffffffffffffffffffffffffffffff19161461141b57836040517f64a0ae920000000000000000000000000000000000000000000000000000000081526004016114129190611e96565b60405180910390fd5b505b5050505050565b606060405180602001604052806000815250905090565b606061144682610e0b565b506000611451611424565b90506000815111611471576040518060200160405280600081525061149c565b8061147b846117d4565b60405160200161148c929190612749565b6040516020818303038152906040525b915050919050565b60007f01ffc9a7000000000000000000000000000000000000000000000000000000007bffffffffffffffffffffffffffffffffffffffffffffffffffffffff1916827bffffffffffffffffffffffffffffffffffffffffffffffffffffffff1916149050919050565b60006002600083815260200190815260200160002060009054906101000a900473ffffffffffffffffffffffffffffffffffffffff169050919050565b80806115845750600073ffffffffffffffffffffffffffffffffffffffff168273ffffffffffffffffffffffffffffffffffffffff1614155b156116b857600061159484610e0b565b9050600073ffffffffffffffffffffffffffffffffffffffff168373ffffffffffffffffffffffffffffffffffffffff16141580156115ff57508273ffffffffffffffffffffffffffffffffffffffff168173ffffffffffffffffffffffffffffffffffffffff1614155b801561161257506116108184610b40565b155b1561165457826040517fa9fbf51f00000000000000000000000000000000000000000000000000000000815260040161164b9190611e96565b60405180910390fd5b81156116b657838573ffffffffffffffffffffffffffffffffffffffff168273ffffffffffffffffffffffffffffffffffffffff167f8c5be1e5ebec7d5bd14f71427d1e84f3dd0314c0f7b2291e5b200ac8c7c3b92560405160405180910390a45b505b836004600085815260200190815260200160002060006101000a81548173ffffffffffffffffffffffffffffffffffffffff021916908373ffffffffffffffffffffffffffffffffffffffff16021790555050505050565b61171b8383836118a2565b6117cf57600073ffffffffffffffffffffffffffffffffffffffff168373ffffffffffffffffffffffffffffffffffffffff160361179057806040517f7e2732890000000000000000000000000000000000000000000000000000000081526004016117879190611d6c565b60405180910390fd5b81816040517f177e802f0000000000000000000000000000000000000000000000000000000081526004016117c6929190612850565b60405180910390fd5b505050565b6060600060016117e384611963565b01905060008167ffffffffffffffff81111561180257611801611ba0565b5b6040519080825280601f01601f1916602001820160405280156118345781602001600182028036833780820191505090505b509050600082602001820190505b600115611897578080600190039150507f3031323334353637383961626364656600000000000000000000000000000000600a86061a8153600a858161188b5761188a612879565b5b04945060008503611842575b819350505050919050565b60008073ffffffffffffffffffffffffffffffffffffffff168373ffffffffffffffffffffffffffffffffffffffff161415801561195a57508273ffffffffffffffffffffffffffffffffffffffff168473ffffffffffffffffffffffffffffffffffffffff16148061191b575061191a8484610b40565b5b8061195957508273ffffffffffffffffffffffffffffffffffffffff1661194183610e93565b73ffffffffffffffffffffffffffffffffffffffff16145b5b90509392505050565b600080600090507a184f03e93ff9f4daa797ed6e38ed64bf6a1f01000000000000000083106119c1577a184f03e93ff9f4daa797ed6e38ed64bf6a1f01000000000000000083816119b7576119b6612879565b5b0492506040810190505b6d04ee2d6d415b85acef810000000083106119fe576d04ee2d6d415b85acef810000000083816119f4576119f3612879565b5b0492506020810190505b662386f26fc100008310611a2d57662386f26fc100008381611a2357611a22612879565b5b0492506010810190505b6305f5e1008310611a56576305f5e1008381611a4c57611a4b612879565b5b0492506008810190505b6127108310611a7b576127108381611a7157611a70612879565b5b0492506004810190505b60648310611a9e5760648381611a9457611a93612879565b5b0492506002810190505b600a8310611aad576001810190505b80915050919050565b6000604051905090565b600080fd5b600080fd5b60007fffffffff0000000000000000000000000000000000000000000000000000000082169050919050565b611aff81611aca565b8114611b0a57600080fd5b50565b600081359050611b1c81611af6565b92915050565b600060208284031215611b3857611b37611ac0565b5b6000611b4684828501611b0d565b91505092915050565b60008115159050919050565b611b6481611b4f565b82525050565b6000602082019050611b7f6000830184611b5b565b92915050565b600080fd5b600080fd5b6000601f19601f8301169050919050565b7f4e487b7100000000000000000000000000000000000000000000000000000000600052604160045260246000fd5b611bd882611b8f565b810181811067ffffffffffffffff82111715611bf757611bf6611ba0565b5b80604052505050565b6000611c0a611ab6565b9050611c168282611bcf565b919050565b600067ffffffffffffffff821115611c3657611c35611ba0565b5b611c3f82611b8f565b9050602081019050919050565b82818337600083830152505050565b6000611c6e611c6984611c1b565b611c00565b905082815260208101848484011115611c8a57611c89611b8a565b5b611c95848285611c4c565b509392505050565b600082601f830112611cb257611cb1611b85565b5b8135611cc2848260208601611c5b565b91505092915050565b6000819050919050565b611cde81611ccb565b8114611ce957600080fd5b50565b600081359050611cfb81611cd5565b92915050565b60008060408385031215611d1857611d17611ac0565b5b600083013567ffffffffffffffff811115611d3657611d35611ac5565b5b611d4285828601611c9d565b9250506020611d5385828601611cec565b9150509250929050565b611d6681611ccb565b82525050565b6000602082019050611d816000830184611d5d565b92915050565b600081519050919050565b600082825260208201905092915050565b60005b83811015611dc1578082015181840152602081019050611da6565b60008484015250505050565b6000611dd882611d87565b611de28185611d92565b9350611df2818560208601611da3565b611dfb81611b8f565b840191505092915050565b60006020820190508181036000830152611e208184611dcd565b905092915050565b600060208284031215611e3e57611e3d611ac0565b5b6000611e4c84828501611cec565b91505092915050565b600073ffffffffffffffffffffffffffffffffffffffff82169050919050565b6000611e8082611e55565b9050919050565b611e9081611e75565b82525050565b6000602082019050611eab6000830184611e87565b92915050565b611eba81611e75565b8114611ec557600080fd5b50565b600081359050611ed781611eb1565b92915050565b60008060408385031215611ef457611ef3611ac0565b5b6000611f0285828601611ec8565b9250506020611f1385828601611cec565b9150509250929050565b600080600060608486031215611f3657611f35611ac0565b5b6000611f4486828701611ec8565b9350506020611f5586828701611ec8565b9250506040611f6686828701611cec565b9150509250925092565b60008060408385031215611f8757611f86611ac0565b5b6000611f9585828601611cec565b925050602083013567ffffffffffffffff811115611fb657611fb5611ac5565b5b611fc285828601611c9d565b9150509250929050565b600081519050919050565b600082825260208201905092915050565b6000819050602082019050919050565b61200181611ccb565b82525050565b60006120138383611ff8565b60208301905092915050565b6000602082019050919050565b600061203782611fcc565b6120418185611fd7565b935061204c83611fe8565b8060005b8381101561207d5781516120648882612007565b975061206f8361201f565b925050600181019050612050565b5085935050505092915050565b600060208201905081810360008301526120a4818461202c565b905092915050565b6000602082840312156120c2576120c1611ac0565b5b60006120d084828501611ec8565b91505092915050565b6120e281611b4f565b81146120ed57600080fd5b50565b6000813590506120ff816120d9565b92915050565b6000806040838503121561211c5761211b611ac0565b5b600061212a85828601611ec8565b925050602061213b858286016120f0565b9150509250929050565b600067ffffffffffffffff8211156121605761215f611ba0565b5b61216982611b8f565b9050602081019050919050565b600061218961218484612145565b611c00565b9050828152602081018484840111156121a5576121a4611b8a565b5b6121b0848285611c4c565b509392505050565b600082601f8301126121cd576121cc611b85565b5b81356121dd848260208601612176565b91505092915050565b60008060008060808587031215612200576121ff611ac0565b5b600061220e87828801611ec8565b945050602061221f87828801611ec8565b935050604061223087828801611cec565b925050606085013567ffffffffffffffff81111561225157612250611ac5565b5b61225d878288016121b8565b91505092959194509250565b600080604083850312156122805761227f611ac0565b5b600061228e85828601611ec8565b925050602061229f85828601611ec8565b9150509250929050565b7f416c7265616479206d696e7465642074686973204e4654202121210000000000600082015250565b60006122df601b83611d92565b91506122ea826122a9565b602082019050919050565b6000602082019050818103600083015261230e816122d2565b9050919050565b7f4e487b7100000000000000000000000000000000000000000000000000000000600052601160045260246000fd5b600061234f82611ccb565b91507fffffffffffffffffffffffffffffffffffffffffffffffffffffffffffffffff820361238157612380612315565b5b600182019050919050565b7f4e487b7100000000000000000000000000000000000000000000000000000000600052602260045260246000fd5b600060028204905060018216806123d357607f821691505b6020821081036123e6576123e561238c565b5b50919050565b60006060820190506124016000830186611e87565b61240e6020830185611d5d565b61241b6040830184611e87565b949350505050565b7f4e6f7420617574686f72697a6564000000000000000000000000000000000000600082015250565b6000612459600e83611d92565b915061246482612423565b602082019050919050565b600060208201905081810360008301526124888161244c565b9050919050565b60008190508160005260206000209050919050565b60006020601f8301049050919050565b600082821b905092915050565b6000600883026124f17fffffffffffffffffffffffffffffffffffffffffffffffffffffffffffffffff826124b4565b6124fb86836124b4565b95508019841693508086168417925050509392505050565b6000819050919050565b600061253861253361252e84611ccb565b612513565b611ccb565b9050919050565b6000819050919050565b6125528361251d565b61256661255e8261253f565b8484546124c1565b825550505050565b600090565b61257b61256e565b612586818484612549565b505050565b5b818110156125aa5761259f600082612573565b60018101905061258c565b5050565b601f8211156125ef576125c08161248f565b6125c9846124a4565b810160208510156125d8578190505b6125ec6125e4856124a4565b83018261258b565b50505b505050565b600082821c905092915050565b6000612612600019846008026125f4565b1980831691505092915050565b600061262b8383612601565b9150826002028217905092915050565b61264482611d87565b67ffffffffffffffff81111561265d5761265c611ba0565b5b61266782546123bb565b6126728282856125ae565b600060209050601f8311600181146126a55760008415612693578287015190505b61269d858261261f565b865550612705565b601f1984166126b38661248f565b60005b828110156126db578489015182556001820191506020850194506020810190506126b6565b868310156126f857848901516126f4601f891682612601565b8355505b6001600288020188555050505b505050505050565b600081905092915050565b600061272382611d87565b61272d818561270d565b935061273d818560208601611da3565b80840191505092915050565b60006127558285612718565b91506127618284612718565b91508190509392505050565b600081519050919050565b600082825260208201905092915050565b60006127948261276d565b61279e8185612778565b93506127ae818560208601611da3565b6127b781611b8f565b840191505092915050565b60006080820190506127d76000830187611e87565b6127e46020830186611e87565b6127f16040830185611d5d565b81810360608301526128038184612789565b905095945050505050565b60008151905061281d81611af6565b92915050565b60006020828403121561283957612838611ac0565b5b60006128478482850161280e565b91505092915050565b60006040820190506128656000830185611e87565b6128726020830184611d5d565b9392505050565b7f4e487b7100000000000000000000000000000000000000000000000000000000600052601260045260246000fdfea26469706673582212207ea05c9fdf90bc849cc1af2b2b3875c38d4b2e23759ec97c78ceef4931caebc564736f6c634300081c0033",
  "linkReferences": {},
  "deployedLinkReferences": {}
}